{
  "_format": "hh-sol-artifact-1",
  "contractName": "CardCollection",
  "sourceName": "contracts/CardCollection.sol",
  "abi": [
    {
      "inputs": [],
      "stateMutability": "nonpayable",
      "type": "constructor"
    },
    {
      "inputs": [
        {
          "internalType": "address",
          "name": "sender",
          "type": "address"
        },
        {
          "internalType": "uint256",
          "name": "tokenId",
          "type": "uint256"
        },
        {
          "internalType": "address",
          "name": "owner",
          "type": "address"
        }
      ],
      "name": "ERC721IncorrectOwner",
      "type": "error"
    },
    {
      "inputs": [
        {
          "internalType": "address",
          "name": "operator",
          "type": "address"
        },
        {
          "internalType": "uint256",
          "name": "tokenId",
          "type": "uint256"
        }
      ],
      "name": "ERC721InsufficientApproval",
      "type": "error"
    },
    {
      "inputs": [
        {
          "internalType": "address",
          "name": "approver",
          "type": "address"
        }
      ],
      "name": "ERC721InvalidApprover",
      "type": "error"
    },
    {
      "inputs": [
        {
          "internalType": "address",
          "name": "operator",
          "type": "address"
        }
      ],
      "name": "ERC721InvalidOperator",
      "type": "error"
    },
    {
      "inputs": [
        {
          "internalType": "address",
          "name": "owner",
          "type": "address"
        }
      ],
      "name": "ERC721InvalidOwner",
      "type": "error"
    },
    {
      "inputs": [
        {
          "internalType": "address",
          "name": "receiver",
          "type": "address"
        }
      ],
      "name": "ERC721InvalidReceiver",
      "type": "error"
    },
    {
      "inputs": [
        {
          "internalType": "address",
          "name": "sender",
          "type": "address"
        }
      ],
      "name": "ERC721InvalidSender",
      "type": "error"
    },
    {
      "inputs": [
        {
          "internalType": "uint256",
          "name": "tokenId",
          "type": "uint256"
        }
      ],
      "name": "ERC721NonexistentToken",
      "type": "error"
    },
    {
      "inputs": [
        {
          "internalType": "address",
          "name": "owner",
          "type": "address"
        }
      ],
      "name": "OwnableInvalidOwner",
      "type": "error"
    },
    {
      "inputs": [
        {
          "internalType": "address",
          "name": "account",
          "type": "address"
        }
      ],
      "name": "OwnableUnauthorizedAccount",
      "type": "error"
    },
    {
      "anonymous": false,
      "inputs": [
        {
          "indexed": true,
          "internalType": "address",
          "name": "owner",
          "type": "address"
        },
        {
          "indexed": true,
          "internalType": "address",
          "name": "approved",
          "type": "address"
        },
        {
          "indexed": true,
          "internalType": "uint256",
          "name": "tokenId",
          "type": "uint256"
        }
      ],
      "name": "Approval",
      "type": "event"
    },
    {
      "anonymous": false,
      "inputs": [
        {
          "indexed": true,
          "internalType": "address",
          "name": "owner",
          "type": "address"
        },
        {
          "indexed": true,
          "internalType": "address",
          "name": "operator",
          "type": "address"
        },
        {
          "indexed": false,
          "internalType": "bool",
          "name": "approved",
          "type": "bool"
        }
      ],
      "name": "ApprovalForAll",
      "type": "event"
    },
    {
      "anonymous": false,
      "inputs": [
        {
          "indexed": false,
          "internalType": "uint256",
          "name": "_fromTokenId",
          "type": "uint256"
        },
        {
          "indexed": false,
          "internalType": "uint256",
          "name": "_toTokenId",
          "type": "uint256"
        }
      ],
      "name": "BatchMetadataUpdate",
      "type": "event"
    },
    {
      "anonymous": false,
      "inputs": [
        {
          "indexed": false,
          "internalType": "uint256",
          "name": "_tokenId",
          "type": "uint256"
        }
      ],
      "name": "MetadataUpdate",
      "type": "event"
    },
    {
      "anonymous": false,
      "inputs": [
        {
          "indexed": true,
          "internalType": "address",
          "name": "previousOwner",
          "type": "address"
        },
        {
          "indexed": true,
          "internalType": "address",
          "name": "newOwner",
          "type": "address"
        }
      ],
      "name": "OwnershipTransferred",
      "type": "event"
    },
    {
      "anonymous": false,
      "inputs": [
        {
          "indexed": true,
          "internalType": "address",
          "name": "from",
          "type": "address"
        },
        {
          "indexed": true,
          "internalType": "address",
          "name": "to",
          "type": "address"
        },
        {
          "indexed": true,
          "internalType": "uint256",
          "name": "tokenId",
          "type": "uint256"
        }
      ],
      "name": "Transfer",
      "type": "event"
    },
    {
      "inputs": [],
      "name": "MAX_OWNED_CARDS",
      "outputs": [
        {
          "internalType": "uint256",
          "name": "",
          "type": "uint256"
        }
      ],
      "stateMutability": "view",
      "type": "function"
    },
    {
      "inputs": [
        {
          "internalType": "address",
          "name": "to",
          "type": "address"
        },
        {
          "internalType": "uint256",
          "name": "tokenId",
          "type": "uint256"
        }
      ],
      "name": "approve",
      "outputs": [],
      "stateMutability": "nonpayable",
      "type": "function"
    },
    {
      "inputs": [
        {
          "internalType": "address",
          "name": "owner",
          "type": "address"
        }
      ],
      "name": "balanceOf",
      "outputs": [
        {
          "internalType": "uint256",
          "name": "",
          "type": "uint256"
        }
      ],
      "stateMutability": "view",
      "type": "function"
    },
    {
      "inputs": [
        {
          "internalType": "address",
          "name": "",
          "type": "address"
        }
      ],
      "name": "cooldowns",
      "outputs": [
        {
          "internalType": "uint256",
          "name": "",
          "type": "uint256"
        }
      ],
      "stateMutability": "view",
      "type": "function"
    },
    {
      "inputs": [
        {
          "internalType": "uint256",
          "name": "tokenId",
          "type": "uint256"
        }
      ],
      "name": "getApproved",
      "outputs": [
        {
          "internalType": "address",
          "name": "",
          "type": "address"
        }
      ],
      "stateMutability": "view",
      "type": "function"
    },
    {
      "inputs": [
        {
          "internalType": "uint256",
          "name": "tokenId",
          "type": "uint256"
        }
      ],
      "name": "getPreviousOwners",
      "outputs": [
        {
          "internalType": "address[]",
          "name": "",
          "type": "address[]"
        }
      ],
      "stateMutability": "view",
      "type": "function"
    },
    {
      "inputs": [
        {
          "internalType": "address",
          "name": "owner",
          "type": "address"
        },
        {
          "internalType": "address",
          "name": "operator",
          "type": "address"
        }
      ],
      "name": "isApprovedForAll",
      "outputs": [
        {
          "internalType": "bool",
          "name": "",
          "type": "bool"
        }
      ],
      "stateMutability": "view",
      "type": "function"
    },
    {
      "inputs": [
        {
          "internalType": "string",
          "name": "tokenURI",
          "type": "string"
        }
      ],
      "name": "mintCard",
      "outputs": [],
      "stateMutability": "nonpayable",
      "type": "function"
    },
    {
      "inputs": [],
      "name": "name",
      "outputs": [
        {
          "internalType": "string",
          "name": "",
          "type": "string"
        }
      ],
      "stateMutability": "view",
      "type": "function"
    },
    {
      "inputs": [],
      "name": "nextTokenId",
      "outputs": [
        {
          "internalType": "uint256",
          "name": "",
          "type": "uint256"
        }
      ],
      "stateMutability": "view",
      "type": "function"
    },
    {
      "inputs": [],
      "name": "owner",
      "outputs": [
        {
          "internalType": "address",
          "name": "",
          "type": "address"
        }
      ],
      "stateMutability": "view",
      "type": "function"
    },
    {
      "inputs": [
        {
          "internalType": "uint256",
          "name": "tokenId",
          "type": "uint256"
        }
      ],
      "name": "ownerOf",
      "outputs": [
        {
          "internalType": "address",
          "name": "",
          "type": "address"
        }
      ],
      "stateMutability": "view",
      "type": "function"
    },
    {
      "inputs": [
        {
          "internalType": "uint256",
          "name": "",
          "type": "uint256"
        },
        {
          "internalType": "uint256",
          "name": "",
          "type": "uint256"
        }
      ],
      "name": "previousOwners",
      "outputs": [
        {
          "internalType": "address",
          "name": "",
          "type": "address"
        }
      ],
      "stateMutability": "view",
      "type": "function"
    },
    {
      "inputs": [],
      "name": "renounceOwnership",
      "outputs": [],
      "stateMutability": "nonpayable",
      "type": "function"
    },
    {
      "inputs": [
        {
          "internalType": "address",
          "name": "from",
          "type": "address"
        },
        {
          "internalType": "address",
          "name": "to",
          "type": "address"
        },
        {
          "internalType": "uint256",
          "name": "tokenId",
          "type": "uint256"
        }
      ],
      "name": "safeTransferFrom",
      "outputs": [],
      "stateMutability": "nonpayable",
      "type": "function"
    },
    {
      "inputs": [
        {
          "internalType": "address",
          "name": "from",
          "type": "address"
        },
        {
          "internalType": "address",
          "name": "to",
          "type": "address"
        },
        {
          "internalType": "uint256",
          "name": "tokenId",
          "type": "uint256"
        },
        {
          "internalType": "bytes",
          "name": "data",
          "type": "bytes"
        }
      ],
      "name": "safeTransferFrom",
      "outputs": [],
      "stateMutability": "nonpayable",
      "type": "function"
    },
    {
      "inputs": [
        {
          "internalType": "address",
          "name": "operator",
          "type": "address"
        },
        {
          "internalType": "bool",
          "name": "approved",
          "type": "bool"
        }
      ],
      "name": "setApprovalForAll",
      "outputs": [],
      "stateMutability": "nonpayable",
      "type": "function"
    },
    {
      "inputs": [
        {
          "internalType": "bytes4",
          "name": "interfaceId",
          "type": "bytes4"
        }
      ],
      "name": "supportsInterface",
      "outputs": [
        {
          "internalType": "bool",
          "name": "",
          "type": "bool"
        }
      ],
      "stateMutability": "view",
      "type": "function"
    },
    {
      "inputs": [],
      "name": "symbol",
      "outputs": [
        {
          "internalType": "string",
          "name": "",
          "type": "string"
        }
      ],
      "stateMutability": "view",
      "type": "function"
    },
    {
      "inputs": [
        {
          "internalType": "uint256",
          "name": "tokenId",
          "type": "uint256"
        }
      ],
      "name": "tokenURI",
      "outputs": [
        {
          "internalType": "string",
          "name": "",
          "type": "string"
        }
      ],
      "stateMutability": "view",
      "type": "function"
    },
    {
      "inputs": [
        {
          "internalType": "uint256",
          "name": "tokenId",
          "type": "uint256"
        },
        {
          "internalType": "address",
          "name": "to",
          "type": "address"
        }
      ],
      "name": "tradeCard",
      "outputs": [],
      "stateMutability": "nonpayable",
      "type": "function"
    },
    {
      "inputs": [
        {
          "internalType": "address",
          "name": "from",
          "type": "address"
        },
        {
          "internalType": "address",
          "name": "to",
          "type": "address"
        },
        {
          "internalType": "uint256",
          "name": "tokenId",
          "type": "uint256"
        }
      ],
      "name": "transferFrom",
      "outputs": [],
      "stateMutability": "nonpayable",
      "type": "function"
    },
    {
      "inputs": [
        {
          "internalType": "address",
          "name": "newOwner",
          "type": "address"
        }
      ],
      "name": "transferOwnership",
      "outputs": [],
      "stateMutability": "nonpayable",
      "type": "function"
    }
  ],
  "bytecode": "0x60806040523480156200001157600080fd5b50336040518060400160405280600e81526020017f43617264436f6c6c656374696f6e0000000000000000000000000000000000008152506040518060400160405280600481526020017f4341524400000000000000000000000000000000000000000000000000000000815250816000908162000090919062000472565b508060019081620000a2919062000472565b505050600073ffffffffffffffffffffffffffffffffffffffff168173ffffffffffffffffffffffffffffffffffffffff16036200011a5760006040517f1e4fbdf70000000000000000000000000000000000000000000000000000000081526004016200011191906200059e565b60405180910390fd5b6200012b816200013260201b60201c565b50620005bb565b6000600760009054906101000a900473ffffffffffffffffffffffffffffffffffffffff16905081600760006101000a81548173ffffffffffffffffffffffffffffffffffffffff021916908373ffffffffffffffffffffffffffffffffffffffff1602179055508173ffffffffffffffffffffffffffffffffffffffff168173ffffffffffffffffffffffffffffffffffffffff167f8be0079c531659141344cd1fd0a4f28419497f9722a3daafe3b4186f6b6457e060405160405180910390a35050565b600081519050919050565b7f4e487b7100000000000000000000000000000000000000000000000000000000600052604160045260246000fd5b7f4e487b7100000000000000000000000000000000000000000000000000000000600052602260045260246000fd5b600060028204905060018216806200027a57607f821691505b60208210810362000290576200028f62000232565b5b50919050565b60008190508160005260206000209050919050565b60006020601f8301049050919050565b600082821b905092915050565b600060088302620002fa7fffffffffffffffffffffffffffffffffffffffffffffffffffffffffffffffff82620002bb565b620003068683620002bb565b95508019841693508086168417925050509392505050565b6000819050919050565b6000819050919050565b6000620003536200034d62000347846200031e565b62000328565b6200031e565b9050919050565b6000819050919050565b6200036f8362000332565b620003876200037e826200035a565b848454620002c8565b825550505050565b600090565b6200039e6200038f565b620003ab81848462000364565b505050565b5b81811015620003d357620003c760008262000394565b600181019050620003b1565b5050565b601f8211156200042257620003ec8162000296565b620003f784620002ab565b8101602085101562000407578190505b6200041f6200041685620002ab565b830182620003b0565b50505b505050565b600082821c905092915050565b6000620004476000198460080262000427565b1980831691505092915050565b600062000462838362000434565b9150826002028217905092915050565b6200047d82620001f8565b67ffffffffffffffff81111562000499576200049862000203565b5b620004a5825462000261565b620004b2828285620003d7565b600060209050601f831160018114620004ea5760008415620004d5578287015190505b620004e1858262000454565b86555062000551565b601f198416620004fa8662000296565b60005b828110156200052457848901518255600182019150602085019450602081019050620004fd565b8683101562000544578489015162000540601f89168262000434565b8355505b6001600288020188555050505b505050505050565b600073ffffffffffffffffffffffffffffffffffffffff82169050919050565b6000620005868262000559565b9050919050565b620005988162000579565b82525050565b6000602082019050620005b560008301846200058d565b92915050565b612f9780620005cb6000396000f3fe608060405234801561001057600080fd5b506004361061014d5760003560e01c806375794a3c116100c3578063b88d4fde1161007c578063b88d4fde1461039e578063c87b56dd146103ba578063e985e9c5146103ea578063f0ce51201461041a578063f1a0995c14610436578063f2fde38b146104665761014d565b806375794a3c146102dc5780638a91a6c8146102fa5780638da5cb5b1461031657806395d89b4114610334578063a22cb46514610352578063b54fb04a1461036e5761014d565b806323b872dd1161011557806323b872dd1461021c5780632a99421c1461023857806342842e0e146102565780636352211e1461027257806370a08231146102a2578063715018a6146102d25761014d565b806301320fe21461015257806301ffc9a71461018257806306fdde03146101b2578063081812fc146101d0578063095ea7b314610200575b600080fd5b61016c600480360381019061016791906120c4565b610482565b604051610179919061210a565b60405180910390f35b61019c6004803603810190610197919061217d565b61049a565b6040516101a991906121c5565b60405180910390f35b6101ba6104fb565b6040516101c79190612270565b60405180910390f35b6101ea60048036038101906101e591906122be565b61058d565b6040516101f791906122fa565b60405180910390f35b61021a60048036038101906102159190612315565b6105a9565b005b61023660048036038101906102319190612355565b6105bf565b005b6102406106c1565b60405161024d919061210a565b60405180910390f35b610270600480360381019061026b9190612355565b6106c6565b005b61028c600480360381019061028791906122be565b6106e6565b60405161029991906122fa565b60405180910390f35b6102bc60048036038101906102b791906120c4565b6106f8565b6040516102c9919061210a565b60405180910390f35b6102da6107b2565b005b6102e46107c6565b6040516102f1919061210a565b60405180910390f35b610314600480360381019061030f91906123a8565b6107cc565b005b61031e6109e3565b60405161032b91906122fa565b60405180910390f35b61033c610a0d565b6040516103499190612270565b60405180910390f35b61036c60048036038101906103679190612414565b610a9f565b005b61038860048036038101906103839190612454565b610ab5565b60405161039591906122fa565b60405180910390f35b6103b860048036038101906103b391906125c9565b610b03565b005b6103d460048036038101906103cf91906122be565b610b28565b6040516103e19190612270565b60405180910390f35b61040460048036038101906103ff919061264c565b610c3b565b60405161041191906121c5565b60405180910390f35b610434600480360381019061042f919061272d565b610ccf565b005b610450600480360381019061044b91906122be565b610d4d565b60405161045d9190612834565b60405180910390f35b610480600480360381019061047b91906120c4565b610dee565b005b60096020528060005260406000206000915090505481565b6000634906490660e01b7bffffffffffffffffffffffffffffffffffffffffffffffffffffffff1916827bffffffffffffffffffffffffffffffffffffffffffffffffffffffff191614806104f457506104f382610e74565b5b9050919050565b60606000805461050a90612885565b80601f016020809104026020016040519081016040528092919081815260200182805461053690612885565b80156105835780601f1061055857610100808354040283529160200191610583565b820191906000526020600020905b81548152906001019060200180831161056657829003601f168201915b5050505050905090565b600061059882610f56565b506105a282610fde565b9050919050565b6105bb82826105b661101b565b611023565b5050565b600073ffffffffffffffffffffffffffffffffffffffff168273ffffffffffffffffffffffffffffffffffffffff16036106315760006040517f64a0ae9200000000000000000000000000000000000000000000000000000000815260040161062891906122fa565b60405180910390fd5b6000610645838361064061101b565b611035565b90508373ffffffffffffffffffffffffffffffffffffffff168173ffffffffffffffffffffffffffffffffffffffff16146106bb578382826040517f64283d7b0000000000000000000000000000000000000000000000000000000081526004016106b2939291906128b6565b60405180910390fd5b50505050565b600481565b6106e183838360405180602001604052806000815250610b03565b505050565b60006106f182610f56565b9050919050565b60008073ffffffffffffffffffffffffffffffffffffffff168273ffffffffffffffffffffffffffffffffffffffff160361076b5760006040517f89c62b6400000000000000000000000000000000000000000000000000000000815260040161076291906122fa565b60405180910390fd5b600360008373ffffffffffffffffffffffffffffffffffffffff1673ffffffffffffffffffffffffffffffffffffffff168152602001908152602001600020549050919050565b6107ba61124f565b6107c460006112d6565b565b60085481565b3373ffffffffffffffffffffffffffffffffffffffff166107ec836106e6565b73ffffffffffffffffffffffffffffffffffffffff1614610842576040517f08c379a000000000000000000000000000000000000000000000000000000000815260040161083990612939565b60405180910390fd5b600960003373ffffffffffffffffffffffffffffffffffffffff1673ffffffffffffffffffffffffffffffffffffffff168152602001908152602001600020544210156108c4576040517f08c379a00000000000000000000000000000000000000000000000000000000081526004016108bb906129a5565b60405180910390fd5b60046108cf826106f8565b1061090f576040517f08c379a000000000000000000000000000000000000000000000000000000000815260040161090690612a11565b60405180910390fd5b61012c4261091d9190612a60565b600960003373ffffffffffffffffffffffffffffffffffffffff1673ffffffffffffffffffffffffffffffffffffffff16815260200190815260200160002081905550600a6000838152602001908152602001600020339080600181540180825580915050600190039060005260206000200160009091909190916101000a81548173ffffffffffffffffffffffffffffffffffffffff021916908373ffffffffffffffffffffffffffffffffffffffff1602179055506109df33828461139c565b5050565b6000600760009054906101000a900473ffffffffffffffffffffffffffffffffffffffff16905090565b606060018054610a1c90612885565b80601f0160208091040260200160405190810160405280929190818152602001828054610a4890612885565b8015610a955780601f10610a6a57610100808354040283529160200191610a95565b820191906000526020600020905b815481529060010190602001808311610a7857829003601f168201915b5050505050905090565b610ab1610aaa61101b565b8383611509565b5050565b600a6020528160005260406000208181548110610ad157600080fd5b906000526020600020016000915091509054906101000a900473ffffffffffffffffffffffffffffffffffffffff1681565b610b0e8484846105bf565b610b22610b1961101b565b85858585611678565b50505050565b6060610b3382610f56565b506000600660008481526020019081526020016000208054610b5490612885565b80601f0160208091040260200160405190810160405280929190818152602001828054610b8090612885565b8015610bcd5780601f10610ba257610100808354040283529160200191610bcd565b820191906000526020600020905b815481529060010190602001808311610bb057829003601f168201915b505050505090506000610bde611829565b90506000815103610bf3578192505050610c36565b600082511115610c28578082604051602001610c10929190612ad0565b60405160208183030381529060405292505050610c36565b610c3184611840565b925050505b919050565b6000600560008473ffffffffffffffffffffffffffffffffffffffff1673ffffffffffffffffffffffffffffffffffffffff16815260200190815260200160002060008373ffffffffffffffffffffffffffffffffffffffff1673ffffffffffffffffffffffffffffffffffffffff16815260200190815260200160002060009054906101000a900460ff16905092915050565b6004610cda336106f8565b10610d1a576040517f08c379a0000000000000000000000000000000000000000000000000000000008152600401610d1190612b40565b60405180910390fd5b600060086000815480929190610d2f90612b60565b919050559050610d3f33826118a9565b610d4981836118c7565b5050565b6060600a6000838152602001908152602001600020805480602002602001604051908101604052809291908181526020018280548015610de257602002820191906000526020600020905b8160009054906101000a900473ffffffffffffffffffffffffffffffffffffffff1673ffffffffffffffffffffffffffffffffffffffff1681526020019060010190808311610d98575b50505050509050919050565b610df661124f565b600073ffffffffffffffffffffffffffffffffffffffff168173ffffffffffffffffffffffffffffffffffffffff1603610e685760006040517f1e4fbdf7000000000000000000000000000000000000000000000000000000008152600401610e5f91906122fa565b60405180910390fd5b610e71816112d6565b50565b60007f80ac58cd000000000000000000000000000000000000000000000000000000007bffffffffffffffffffffffffffffffffffffffffffffffffffffffff1916827bffffffffffffffffffffffffffffffffffffffffffffffffffffffff19161480610f3f57507f5b5e139f000000000000000000000000000000000000000000000000000000007bffffffffffffffffffffffffffffffffffffffffffffffffffffffff1916827bffffffffffffffffffffffffffffffffffffffffffffffffffffffff1916145b80610f4f5750610f4e82611923565b5b9050919050565b600080610f628361198d565b9050600073ffffffffffffffffffffffffffffffffffffffff168173ffffffffffffffffffffffffffffffffffffffff1603610fd557826040517f7e273289000000000000000000000000000000000000000000000000000000008152600401610fcc919061210a565b60405180910390fd5b80915050919050565b60006004600083815260200190815260200160002060009054906101000a900473ffffffffffffffffffffffffffffffffffffffff169050919050565b600033905090565b61103083838360016119ca565b505050565b6000806110418461198d565b9050600073ffffffffffffffffffffffffffffffffffffffff168373ffffffffffffffffffffffffffffffffffffffff161461108357611082818486611b8f565b5b600073ffffffffffffffffffffffffffffffffffffffff168173ffffffffffffffffffffffffffffffffffffffff1614611114576110c56000856000806119ca565b6001600360008373ffffffffffffffffffffffffffffffffffffffff1673ffffffffffffffffffffffffffffffffffffffff168152602001908152602001600020600082825403925050819055505b600073ffffffffffffffffffffffffffffffffffffffff168573ffffffffffffffffffffffffffffffffffffffff1614611197576001600360008773ffffffffffffffffffffffffffffffffffffffff1673ffffffffffffffffffffffffffffffffffffffff168152602001908152602001600020600082825401925050819055505b846002600086815260200190815260200160002060006101000a81548173ffffffffffffffffffffffffffffffffffffffff021916908373ffffffffffffffffffffffffffffffffffffffff160217905550838573ffffffffffffffffffffffffffffffffffffffff168273ffffffffffffffffffffffffffffffffffffffff167fddf252ad1be2c89b69c2b068fc378daa952ba7f163c4a11628f55a4df523b3ef60405160405180910390a4809150509392505050565b61125761101b565b73ffffffffffffffffffffffffffffffffffffffff166112756109e3565b73ffffffffffffffffffffffffffffffffffffffff16146112d45761129861101b565b6040517f118cdaa70000000000000000000000000000000000000000000000000000000081526004016112cb91906122fa565b60405180910390fd5b565b6000600760009054906101000a900473ffffffffffffffffffffffffffffffffffffffff16905081600760006101000a81548173ffffffffffffffffffffffffffffffffffffffff021916908373ffffffffffffffffffffffffffffffffffffffff1602179055508173ffffffffffffffffffffffffffffffffffffffff168173ffffffffffffffffffffffffffffffffffffffff167f8be0079c531659141344cd1fd0a4f28419497f9722a3daafe3b4186f6b6457e060405160405180910390a35050565b600073ffffffffffffffffffffffffffffffffffffffff168273ffffffffffffffffffffffffffffffffffffffff160361140e5760006040517f64a0ae9200000000000000000000000000000000000000000000000000000000815260040161140591906122fa565b60405180910390fd5b600061141c83836000611035565b9050600073ffffffffffffffffffffffffffffffffffffffff168173ffffffffffffffffffffffffffffffffffffffff160361148f57816040517f7e273289000000000000000000000000000000000000000000000000000000008152600401611486919061210a565b60405180910390fd5b8373ffffffffffffffffffffffffffffffffffffffff168173ffffffffffffffffffffffffffffffffffffffff1614611503578382826040517f64283d7b0000000000000000000000000000000000000000000000000000000081526004016114fa939291906128b6565b60405180910390fd5b50505050565b600073ffffffffffffffffffffffffffffffffffffffff168273ffffffffffffffffffffffffffffffffffffffff160361157a57816040517f5b08ba1800000000000000000000000000000000000000000000000000000000815260040161157191906122fa565b60405180910390fd5b80600560008573ffffffffffffffffffffffffffffffffffffffff1673ffffffffffffffffffffffffffffffffffffffff16815260200190815260200160002060008473ffffffffffffffffffffffffffffffffffffffff1673ffffffffffffffffffffffffffffffffffffffff16815260200190815260200160002060006101000a81548160ff0219169083151502179055508173ffffffffffffffffffffffffffffffffffffffff168373ffffffffffffffffffffffffffffffffffffffff167f17307eab39ab6107e8899845ad3d59bd9653f200f220920489ca2b5937696c318360405161166b91906121c5565b60405180910390a3505050565b60008373ffffffffffffffffffffffffffffffffffffffff163b1115611822578273ffffffffffffffffffffffffffffffffffffffff1663150b7a02868685856040518563ffffffff1660e01b81526004016116d79493929190612bfd565b6020604051808303816000875af192505050801561171357506040513d601f19601f820116820180604052508101906117109190612c5e565b60015b611797573d8060008114611743576040519150601f19603f3d011682016040523d82523d6000602084013e611748565b606091505b50600081510361178f57836040517f64a0ae9200000000000000000000000000000000000000000000000000000000815260040161178691906122fa565b60405180910390fd5b805181602001fd5b63150b7a0260e01b7bffffffffffffffffffffffffffffffffffffffffffffffffffffffff1916817bffffffffffffffffffffffffffffffffffffffffffffffffffffffff19161461182057836040517f64a0ae9200000000000000000000000000000000000000000000000000000000815260040161181791906122fa565b60405180910390fd5b505b5050505050565b606060405180602001604052806000815250905090565b606061184b82610f56565b506000611856611829565b9050600081511161187657604051806020016040528060008152506118a1565b8061188084611c53565b604051602001611891929190612ad0565b6040516020818303038152906040525b915050919050565b6118c3828260405180602001604052806000815250611d21565b5050565b806006600084815260200190815260200160002090816118e79190612e37565b507ff8e1a15aba9398e019f0b49df1a4fde98ee17ae345cb5f6b5e2c27f5033e8ce782604051611917919061210a565b60405180910390a15050565b60007f01ffc9a7000000000000000000000000000000000000000000000000000000007bffffffffffffffffffffffffffffffffffffffffffffffffffffffff1916827bffffffffffffffffffffffffffffffffffffffffffffffffffffffff1916149050919050565b60006002600083815260200190815260200160002060009054906101000a900473ffffffffffffffffffffffffffffffffffffffff169050919050565b8080611a035750600073ffffffffffffffffffffffffffffffffffffffff168273ffffffffffffffffffffffffffffffffffffffff1614155b15611b37576000611a1384610f56565b9050600073ffffffffffffffffffffffffffffffffffffffff168373ffffffffffffffffffffffffffffffffffffffff1614158015611a7e57508273ffffffffffffffffffffffffffffffffffffffff168173ffffffffffffffffffffffffffffffffffffffff1614155b8015611a915750611a8f8184610c3b565b155b15611ad357826040517fa9fbf51f000000000000000000000000000000000000000000000000000000008152600401611aca91906122fa565b60405180910390fd5b8115611b3557838573ffffffffffffffffffffffffffffffffffffffff168273ffffffffffffffffffffffffffffffffffffffff167f8c5be1e5ebec7d5bd14f71427d1e84f3dd0314c0f7b2291e5b200ac8c7c3b92560405160405180910390a45b505b836004600085815260200190815260200160002060006101000a81548173ffffffffffffffffffffffffffffffffffffffff021916908373ffffffffffffffffffffffffffffffffffffffff16021790555050505050565b611b9a838383611d45565b611c4e57600073ffffffffffffffffffffffffffffffffffffffff168373ffffffffffffffffffffffffffffffffffffffff1603611c0f57806040517f7e273289000000000000000000000000000000000000000000000000000000008152600401611c06919061210a565b60405180910390fd5b81816040517f177e802f000000000000000000000000000000000000000000000000000000008152600401611c45929190612f09565b60405180910390fd5b505050565b606060006001611c6284611e06565b01905060008167ffffffffffffffff811115611c8157611c8061249e565b5b6040519080825280601f01601f191660200182016040528015611cb35781602001600182028036833780820191505090505b509050600082602001820190505b600115611d16578080600190039150507f3031323334353637383961626364656600000000000000000000000000000000600a86061a8153600a8581611d0a57611d09612f32565b5b04945060008503611cc1575b819350505050919050565b611d2b8383611f59565b611d40611d3661101b565b6000858585611678565b505050565b60008073ffffffffffffffffffffffffffffffffffffffff168373ffffffffffffffffffffffffffffffffffffffff1614158015611dfd57508273ffffffffffffffffffffffffffffffffffffffff168473ffffffffffffffffffffffffffffffffffffffff161480611dbe5750611dbd8484610c3b565b5b80611dfc57508273ffffffffffffffffffffffffffffffffffffffff16611de483610fde565b73ffffffffffffffffffffffffffffffffffffffff16145b5b90509392505050565b600080600090507a184f03e93ff9f4daa797ed6e38ed64bf6a1f0100000000000000008310611e64577a184f03e93ff9f4daa797ed6e38ed64bf6a1f0100000000000000008381611e5a57611e59612f32565b5b0492506040810190505b6d04ee2d6d415b85acef81000000008310611ea1576d04ee2d6d415b85acef81000000008381611e9757611e96612f32565b5b0492506020810190505b662386f26fc100008310611ed057662386f26fc100008381611ec657611ec5612f32565b5b0492506010810190505b6305f5e1008310611ef9576305f5e1008381611eef57611eee612f32565b5b0492506008810190505b6127108310611f1e576127108381611f1457611f13612f32565b5b0492506004810190505b60648310611f415760648381611f3757611f36612f32565b5b0492506002810190505b600a8310611f50576001810190505b80915050919050565b600073ffffffffffffffffffffffffffffffffffffffff168273ffffffffffffffffffffffffffffffffffffffff1603611fcb5760006040517f64a0ae92000000000000000000000000000000000000000000000000000000008152600401611fc291906122fa565b60405180910390fd5b6000611fd983836000611035565b9050600073ffffffffffffffffffffffffffffffffffffffff168173ffffffffffffffffffffffffffffffffffffffff161461204d5760006040517f73c6ac6e00000000000000000000000000000000000000000000000000000000815260040161204491906122fa565b60405180910390fd5b505050565b6000604051905090565b600080fd5b600080fd5b600073ffffffffffffffffffffffffffffffffffffffff82169050919050565b600061209182612066565b9050919050565b6120a181612086565b81146120ac57600080fd5b50565b6000813590506120be81612098565b92915050565b6000602082840312156120da576120d961205c565b5b60006120e8848285016120af565b91505092915050565b6000819050919050565b612104816120f1565b82525050565b600060208201905061211f60008301846120fb565b92915050565b60007fffffffff0000000000000000000000000000000000000000000000000000000082169050919050565b61215a81612125565b811461216557600080fd5b50565b60008135905061217781612151565b92915050565b6000602082840312156121935761219261205c565b5b60006121a184828501612168565b91505092915050565b60008115159050919050565b6121bf816121aa565b82525050565b60006020820190506121da60008301846121b6565b92915050565b600081519050919050565b600082825260208201905092915050565b60005b8381101561221a5780820151818401526020810190506121ff565b60008484015250505050565b6000601f19601f8301169050919050565b6000612242826121e0565b61224c81856121eb565b935061225c8185602086016121fc565b61226581612226565b840191505092915050565b6000602082019050818103600083015261228a8184612237565b905092915050565b61229b816120f1565b81146122a657600080fd5b50565b6000813590506122b881612292565b92915050565b6000602082840312156122d4576122d361205c565b5b60006122e2848285016122a9565b91505092915050565b6122f481612086565b82525050565b600060208201905061230f60008301846122eb565b92915050565b6000806040838503121561232c5761232b61205c565b5b600061233a858286016120af565b925050602061234b858286016122a9565b9150509250929050565b60008060006060848603121561236e5761236d61205c565b5b600061237c868287016120af565b935050602061238d868287016120af565b925050604061239e868287016122a9565b9150509250925092565b600080604083850312156123bf576123be61205c565b5b60006123cd858286016122a9565b92505060206123de858286016120af565b9150509250929050565b6123f1816121aa565b81146123fc57600080fd5b50565b60008135905061240e816123e8565b92915050565b6000806040838503121561242b5761242a61205c565b5b6000612439858286016120af565b925050602061244a858286016123ff565b9150509250929050565b6000806040838503121561246b5761246a61205c565b5b6000612479858286016122a9565b925050602061248a858286016122a9565b9150509250929050565b600080fd5b600080fd5b7f4e487b7100000000000000000000000000000000000000000000000000000000600052604160045260246000fd5b6124d682612226565b810181811067ffffffffffffffff821117156124f5576124f461249e565b5b80604052505050565b6000612508612052565b905061251482826124cd565b919050565b600067ffffffffffffffff8211156125345761253361249e565b5b61253d82612226565b9050602081019050919050565b82818337600083830152505050565b600061256c61256784612519565b6124fe565b90508281526020810184848401111561258857612587612499565b5b61259384828561254a565b509392505050565b600082601f8301126125b0576125af612494565b5b81356125c0848260208601612559565b91505092915050565b600080600080608085870312156125e3576125e261205c565b5b60006125f1878288016120af565b9450506020612602878288016120af565b9350506040612613878288016122a9565b925050606085013567ffffffffffffffff81111561263457612633612061565b5b6126408782880161259b565b91505092959194509250565b600080604083850312156126635761266261205c565b5b6000612671858286016120af565b9250506020612682858286016120af565b9150509250929050565b600067ffffffffffffffff8211156126a7576126a661249e565b5b6126b082612226565b9050602081019050919050565b60006126d06126cb8461268c565b6124fe565b9050828152602081018484840111156126ec576126eb612499565b5b6126f784828561254a565b509392505050565b600082601f83011261271457612713612494565b5b81356127248482602086016126bd565b91505092915050565b6000602082840312156127435761274261205c565b5b600082013567ffffffffffffffff81111561276157612760612061565b5b61276d848285016126ff565b91505092915050565b600081519050919050565b600082825260208201905092915050565b6000819050602082019050919050565b6127ab81612086565b82525050565b60006127bd83836127a2565b60208301905092915050565b6000602082019050919050565b60006127e182612776565b6127eb8185612781565b93506127f683612792565b8060005b8381101561282757815161280e88826127b1565b9750612819836127c9565b9250506001810190506127fa565b5085935050505092915050565b6000602082019050818103600083015261284e81846127d6565b905092915050565b7f4e487b7100000000000000000000000000000000000000000000000000000000600052602260045260246000fd5b6000600282049050600182168061289d57607f821691505b6020821081036128b0576128af612856565b5b50919050565b60006060820190506128cb60008301866122eb565b6128d860208301856120fb565b6128e560408301846122eb565b949350505050565b7f4e6f7420746865206f776e657200000000000000000000000000000000000000600082015250565b6000612923600d836121eb565b915061292e826128ed565b602082019050919050565b6000602082019050818103600083015261295281612916565b9050919050565b7f436f6f6c646f776e206163746976650000000000000000000000000000000000600082015250565b600061298f600f836121eb565b915061299a82612959565b602082019050919050565b600060208201905081810360008301526129be81612982565b9050919050565b7f526563697069656e74206174206d6178206f776e657273686970000000000000600082015250565b60006129fb601a836121eb565b9150612a06826129c5565b602082019050919050565b60006020820190508181036000830152612a2a816129ee565b9050919050565b7f4e487b7100000000000000000000000000000000000000000000000000000000600052601160045260246000fd5b6000612a6b826120f1565b9150612a76836120f1565b9250828201905080821115612a8e57612a8d612a31565b5b92915050565b600081905092915050565b6000612aaa826121e0565b612ab48185612a94565b9350612ac48185602086016121fc565b80840191505092915050565b6000612adc8285612a9f565b9150612ae88284612a9f565b91508190509392505050565b7f4f776e657273686970206c696d69742072656163686564000000000000000000600082015250565b6000612b2a6017836121eb565b9150612b3582612af4565b602082019050919050565b60006020820190508181036000830152612b5981612b1d565b9050919050565b6000612b6b826120f1565b91507fffffffffffffffffffffffffffffffffffffffffffffffffffffffffffffffff8203612b9d57612b9c612a31565b5b600182019050919050565b600081519050919050565b600082825260208201905092915050565b6000612bcf82612ba8565b612bd98185612bb3565b9350612be98185602086016121fc565b612bf281612226565b840191505092915050565b6000608082019050612c1260008301876122eb565b612c1f60208301866122eb565b612c2c60408301856120fb565b8181036060830152612c3e8184612bc4565b905095945050505050565b600081519050612c5881612151565b92915050565b600060208284031215612c7457612c7361205c565b5b6000612c8284828501612c49565b91505092915050565b60008190508160005260206000209050919050565b60006020601f8301049050919050565b600082821b905092915050565b600060088302612ced7fffffffffffffffffffffffffffffffffffffffffffffffffffffffffffffffff82612cb0565b612cf78683612cb0565b95508019841693508086168417925050509392505050565b6000819050919050565b6000612d34612d2f612d2a846120f1565b612d0f565b6120f1565b9050919050565b6000819050919050565b612d4e83612d19565b612d62612d5a82612d3b565b848454612cbd565b825550505050565b600090565b612d77612d6a565b612d82818484612d45565b505050565b5b81811015612da657612d9b600082612d6f565b600181019050612d88565b5050565b601f821115612deb57612dbc81612c8b565b612dc584612ca0565b81016020851015612dd4578190505b612de8612de085612ca0565b830182612d87565b50505b505050565b600082821c905092915050565b6000612e0e60001984600802612df0565b1980831691505092915050565b6000612e278383612dfd565b9150826002028217905092915050565b612e40826121e0565b67ffffffffffffffff811115612e5957612e5861249e565b5b612e638254612885565b612e6e828285612daa565b600060209050601f831160018114612ea15760008415612e8f578287015190505b612e998582612e1b565b865550612f01565b601f198416612eaf86612c8b565b60005b82811015612ed757848901518255600182019150602085019450602081019050612eb2565b86831015612ef45784890151612ef0601f891682612dfd565b8355505b6001600288020188555050505b505050505050565b6000604082019050612f1e60008301856122eb565b612f2b60208301846120fb565b9392505050565b7f4e487b7100000000000000000000000000000000000000000000000000000000600052601260045260246000fdfea2646970667358221220c87088aae0bfc31f9c10f9d6dd4a0a2bd111b9c36f2391f0ddd9b07c8c50081764736f6c63430008140033",
  "linkReferences": {},
  "deployedLinkReferences": {}
}