{
  "_format": "hh-sol-artifact-1",
  "contractName": "CardCollection",
  "sourceName": "contracts/CardCollection.sol",
  "abi": [
    {
      "inputs": [],
      "stateMutability": "nonpayable",
      "type": "constructor"
    },
    {
      "inputs": [
        {
          "internalType": "address",
          "name": "sender",
          "type": "address"
        },
        {
          "internalType": "uint256",
          "name": "tokenId",
          "type": "uint256"
        },
        {
          "internalType": "address",
          "name": "owner",
          "type": "address"
        }
      ],
      "name": "ERC721IncorrectOwner",
      "type": "error"
    },
    {
      "inputs": [
        {
          "internalType": "address",
          "name": "operator",
          "type": "address"
        },
        {
          "internalType": "uint256",
          "name": "tokenId",
          "type": "uint256"
        }
      ],
      "name": "ERC721InsufficientApproval",
      "type": "error"
    },
    {
      "inputs": [
        {
          "internalType": "address",
          "name": "approver",
          "type": "address"
        }
      ],
      "name": "ERC721InvalidApprover",
      "type": "error"
    },
    {
      "inputs": [
        {
          "internalType": "address",
          "name": "operator",
          "type": "address"
        }
      ],
      "name": "ERC721InvalidOperator",
      "type": "error"
    },
    {
      "inputs": [
        {
          "internalType": "address",
          "name": "owner",
          "type": "address"
        }
      ],
      "name": "ERC721InvalidOwner",
      "type": "error"
    },
    {
      "inputs": [
        {
          "internalType": "address",
          "name": "receiver",
          "type": "address"
        }
      ],
      "name": "ERC721InvalidReceiver",
      "type": "error"
    },
    {
      "inputs": [
        {
          "internalType": "address",
          "name": "sender",
          "type": "address"
        }
      ],
      "name": "ERC721InvalidSender",
      "type": "error"
    },
    {
      "inputs": [
        {
          "internalType": "uint256",
          "name": "tokenId",
          "type": "uint256"
        }
      ],
      "name": "ERC721NonexistentToken",
      "type": "error"
    },
    {
      "inputs": [
        {
          "internalType": "address",
          "name": "owner",
          "type": "address"
        }
      ],
      "name": "OwnableInvalidOwner",
      "type": "error"
    },
    {
      "inputs": [
        {
          "internalType": "address",
          "name": "account",
          "type": "address"
        }
      ],
      "name": "OwnableUnauthorizedAccount",
      "type": "error"
    },
    {
      "anonymous": false,
      "inputs": [
        {
          "indexed": true,
          "internalType": "address",
          "name": "owner",
          "type": "address"
        },
        {
          "indexed": true,
          "internalType": "address",
          "name": "approved",
          "type": "address"
        },
        {
          "indexed": true,
          "internalType": "uint256",
          "name": "tokenId",
          "type": "uint256"
        }
      ],
      "name": "Approval",
      "type": "event"
    },
    {
      "anonymous": false,
      "inputs": [
        {
          "indexed": true,
          "internalType": "address",
          "name": "owner",
          "type": "address"
        },
        {
          "indexed": true,
          "internalType": "address",
          "name": "operator",
          "type": "address"
        },
        {
          "indexed": false,
          "internalType": "bool",
          "name": "approved",
          "type": "bool"
        }
      ],
      "name": "ApprovalForAll",
      "type": "event"
    },
    {
      "anonymous": false,
      "inputs": [
        {
          "indexed": false,
          "internalType": "uint256",
          "name": "_fromTokenId",
          "type": "uint256"
        },
        {
          "indexed": false,
          "internalType": "uint256",
          "name": "_toTokenId",
          "type": "uint256"
        }
      ],
      "name": "BatchMetadataUpdate",
      "type": "event"
    },
    {
      "anonymous": false,
      "inputs": [
        {
          "indexed": false,
          "internalType": "uint256",
          "name": "_tokenId",
          "type": "uint256"
        }
      ],
      "name": "MetadataUpdate",
      "type": "event"
    },
    {
      "anonymous": false,
      "inputs": [
        {
          "indexed": true,
          "internalType": "address",
          "name": "previousOwner",
          "type": "address"
        },
        {
          "indexed": true,
          "internalType": "address",
          "name": "newOwner",
          "type": "address"
        }
      ],
      "name": "OwnershipTransferred",
      "type": "event"
    },
    {
      "anonymous": false,
      "inputs": [
        {
          "indexed": true,
          "internalType": "address",
          "name": "from",
          "type": "address"
        },
        {
          "indexed": true,
          "internalType": "address",
          "name": "to",
          "type": "address"
        },
        {
          "indexed": true,
          "internalType": "uint256",
          "name": "tokenId",
          "type": "uint256"
        }
      ],
      "name": "Transfer",
      "type": "event"
    },
    {
      "inputs": [],
      "name": "MAX_OWNED_CARDS",
      "outputs": [
        {
          "internalType": "uint256",
          "name": "",
          "type": "uint256"
        }
      ],
      "stateMutability": "view",
      "type": "function"
    },
    {
      "inputs": [
        {
          "internalType": "address",
          "name": "to",
          "type": "address"
        },
        {
          "internalType": "uint256",
          "name": "tokenId",
          "type": "uint256"
        }
      ],
      "name": "approve",
      "outputs": [],
      "stateMutability": "nonpayable",
      "type": "function"
    },
    {
      "inputs": [
        {
          "internalType": "address",
          "name": "owner",
          "type": "address"
        }
      ],
      "name": "balanceOf",
      "outputs": [
        {
          "internalType": "uint256",
          "name": "",
          "type": "uint256"
        }
      ],
      "stateMutability": "view",
      "type": "function"
    },
    {
      "inputs": [
        {
          "internalType": "address",
          "name": "",
          "type": "address"
        }
      ],
      "name": "cooldowns",
      "outputs": [
        {
          "internalType": "uint256",
          "name": "",
          "type": "uint256"
        }
      ],
      "stateMutability": "view",
      "type": "function"
    },
    {
      "inputs": [
        {
          "internalType": "uint256",
          "name": "tokenId",
          "type": "uint256"
        }
      ],
      "name": "getApproved",
      "outputs": [
        {
          "internalType": "address",
          "name": "",
          "type": "address"
        }
      ],
      "stateMutability": "view",
      "type": "function"
    },
    {
      "inputs": [
        {
          "internalType": "uint256",
          "name": "tokenId",
          "type": "uint256"
        }
      ],
      "name": "getCardInfo",
      "outputs": [
        {
          "internalType": "string",
          "name": "level",
          "type": "string"
        },
        {
          "internalType": "string",
          "name": "ipfsHash",
          "type": "string"
        },
        {
          "internalType": "uint256",
          "name": "mintedAt",
          "type": "uint256"
        },
        {
          "internalType": "uint256",
          "name": "lastTradedAt",
          "type": "uint256"
        },
        {
          "internalType": "address[]",
          "name": "previousOwners",
          "type": "address[]"
        }
      ],
      "stateMutability": "view",
      "type": "function"
    },
    {
      "inputs": [
        {
          "internalType": "uint256",
          "name": "tokenId",
          "type": "uint256"
        }
      ],
      "name": "getIpfsHash",
      "outputs": [
        {
          "internalType": "string",
          "name": "",
          "type": "string"
        }
      ],
      "stateMutability": "view",
      "type": "function"
    },
    {
      "inputs": [
        {
          "internalType": "uint256",
          "name": "tokenId",
          "type": "uint256"
        }
      ],
      "name": "getLevel",
      "outputs": [
        {
          "internalType": "string",
          "name": "",
          "type": "string"
        }
      ],
      "stateMutability": "view",
      "type": "function"
    },
    {
      "inputs": [
        {
          "internalType": "uint256",
          "name": "tokenId",
          "type": "uint256"
        }
      ],
      "name": "getPreviousOwners",
      "outputs": [
        {
          "internalType": "address[]",
          "name": "",
          "type": "address[]"
        }
      ],
      "stateMutability": "view",
      "type": "function"
    },
    {
      "inputs": [
        {
          "internalType": "address",
          "name": "owner",
          "type": "address"
        },
        {
          "internalType": "address",
          "name": "operator",
          "type": "address"
        }
      ],
      "name": "isApprovedForAll",
      "outputs": [
        {
          "internalType": "bool",
          "name": "",
          "type": "bool"
        }
      ],
      "stateMutability": "view",
      "type": "function"
    },
    {
      "inputs": [
        {
          "internalType": "string",
          "name": "tokenURI",
          "type": "string"
        },
        {
          "internalType": "string",
          "name": "level",
          "type": "string"
        },
        {
          "internalType": "string",
          "name": "ipfsHash",
          "type": "string"
        }
      ],
      "name": "mintCard",
      "outputs": [],
      "stateMutability": "nonpayable",
      "type": "function"
    },
    {
      "inputs": [],
      "name": "name",
      "outputs": [
        {
          "internalType": "string",
          "name": "",
          "type": "string"
        }
      ],
      "stateMutability": "view",
      "type": "function"
    },
    {
      "inputs": [],
      "name": "nextTokenId",
      "outputs": [
        {
          "internalType": "uint256",
          "name": "",
          "type": "uint256"
        }
      ],
      "stateMutability": "view",
      "type": "function"
    },
    {
      "inputs": [],
      "name": "owner",
      "outputs": [
        {
          "internalType": "address",
          "name": "",
          "type": "address"
        }
      ],
      "stateMutability": "view",
      "type": "function"
    },
    {
      "inputs": [
        {
          "internalType": "uint256",
          "name": "tokenId",
          "type": "uint256"
        }
      ],
      "name": "ownerOf",
      "outputs": [
        {
          "internalType": "address",
          "name": "",
          "type": "address"
        }
      ],
      "stateMutability": "view",
      "type": "function"
    },
    {
      "inputs": [],
      "name": "renounceOwnership",
      "outputs": [],
      "stateMutability": "nonpayable",
      "type": "function"
    },
    {
      "inputs": [
        {
          "internalType": "address",
          "name": "from",
          "type": "address"
        },
        {
          "internalType": "address",
          "name": "to",
          "type": "address"
        },
        {
          "internalType": "uint256",
          "name": "tokenId",
          "type": "uint256"
        }
      ],
      "name": "safeTransferFrom",
      "outputs": [],
      "stateMutability": "nonpayable",
      "type": "function"
    },
    {
      "inputs": [
        {
          "internalType": "address",
          "name": "from",
          "type": "address"
        },
        {
          "internalType": "address",
          "name": "to",
          "type": "address"
        },
        {
          "internalType": "uint256",
          "name": "tokenId",
          "type": "uint256"
        },
        {
          "internalType": "bytes",
          "name": "data",
          "type": "bytes"
        }
      ],
      "name": "safeTransferFrom",
      "outputs": [],
      "stateMutability": "nonpayable",
      "type": "function"
    },
    {
      "inputs": [
        {
          "internalType": "address",
          "name": "operator",
          "type": "address"
        },
        {
          "internalType": "bool",
          "name": "approved",
          "type": "bool"
        }
      ],
      "name": "setApprovalForAll",
      "outputs": [],
      "stateMutability": "nonpayable",
      "type": "function"
    },
    {
      "inputs": [
        {
          "internalType": "bytes4",
          "name": "interfaceId",
          "type": "bytes4"
        }
      ],
      "name": "supportsInterface",
      "outputs": [
        {
          "internalType": "bool",
          "name": "",
          "type": "bool"
        }
      ],
      "stateMutability": "view",
      "type": "function"
    },
    {
      "inputs": [],
      "name": "symbol",
      "outputs": [
        {
          "internalType": "string",
          "name": "",
          "type": "string"
        }
      ],
      "stateMutability": "view",
      "type": "function"
    },
    {
      "inputs": [
        {
          "internalType": "uint256",
          "name": "tokenId",
          "type": "uint256"
        }
      ],
      "name": "tokenURI",
      "outputs": [
        {
          "internalType": "string",
          "name": "",
          "type": "string"
        }
      ],
      "stateMutability": "view",
      "type": "function"
    },
    {
      "inputs": [
        {
          "internalType": "uint256",
          "name": "tokenId",
          "type": "uint256"
        },
        {
          "internalType": "address",
          "name": "to",
          "type": "address"
        }
      ],
      "name": "tradeCard",
      "outputs": [],
      "stateMutability": "nonpayable",
      "type": "function"
    },
    {
      "inputs": [
        {
          "internalType": "address",
          "name": "from",
          "type": "address"
        },
        {
          "internalType": "address",
          "name": "to",
          "type": "address"
        },
        {
          "internalType": "uint256",
          "name": "tokenId",
          "type": "uint256"
        }
      ],
      "name": "transferFrom",
      "outputs": [],
      "stateMutability": "nonpayable",
      "type": "function"
    },
    {
      "inputs": [
        {
          "internalType": "address",
          "name": "newOwner",
          "type": "address"
        }
      ],
      "name": "transferOwnership",
      "outputs": [],
      "stateMutability": "nonpayable",
      "type": "function"
    }
  ],
  "bytecode": "0x60806040523480156200001157600080fd5b50336040518060400160405280600e81526020017f43617264436f6c6c656374696f6e0000000000000000000000000000000000008152506040518060400160405280600481526020017f4341524400000000000000000000000000000000000000000000000000000000815250816000908162000090919062000472565b508060019081620000a2919062000472565b505050600073ffffffffffffffffffffffffffffffffffffffff168173ffffffffffffffffffffffffffffffffffffffff16036200011a5760006040517f1e4fbdf70000000000000000000000000000000000000000000000000000000081526004016200011191906200059e565b60405180910390fd5b6200012b816200013260201b60201c565b50620005bb565b6000600760009054906101000a900473ffffffffffffffffffffffffffffffffffffffff16905081600760006101000a81548173ffffffffffffffffffffffffffffffffffffffff021916908373ffffffffffffffffffffffffffffffffffffffff1602179055508173ffffffffffffffffffffffffffffffffffffffff168173ffffffffffffffffffffffffffffffffffffffff167f8be0079c531659141344cd1fd0a4f28419497f9722a3daafe3b4186f6b6457e060405160405180910390a35050565b600081519050919050565b7f4e487b7100000000000000000000000000000000000000000000000000000000600052604160045260246000fd5b7f4e487b7100000000000000000000000000000000000000000000000000000000600052602260045260246000fd5b600060028204905060018216806200027a57607f821691505b60208210810362000290576200028f62000232565b5b50919050565b60008190508160005260206000209050919050565b60006020601f8301049050919050565b600082821b905092915050565b600060088302620002fa7fffffffffffffffffffffffffffffffffffffffffffffffffffffffffffffffff82620002bb565b620003068683620002bb565b95508019841693508086168417925050509392505050565b6000819050919050565b6000819050919050565b6000620003536200034d62000347846200031e565b62000328565b6200031e565b9050919050565b6000819050919050565b6200036f8362000332565b620003876200037e826200035a565b848454620002c8565b825550505050565b600090565b6200039e6200038f565b620003ab81848462000364565b505050565b5b81811015620003d357620003c760008262000394565b600181019050620003b1565b5050565b601f8211156200042257620003ec8162000296565b620003f784620002ab565b8101602085101562000407578190505b6200041f6200041685620002ab565b830182620003b0565b50505b505050565b600082821c905092915050565b6000620004476000198460080262000427565b1980831691505092915050565b600062000462838362000434565b9150826002028217905092915050565b6200047d82620001f8565b67ffffffffffffffff81111562000499576200049862000203565b5b620004a5825462000261565b620004b2828285620003d7565b600060209050601f831160018114620004ea5760008415620004d5578287015190505b620004e1858262000454565b86555062000551565b601f198416620004fa8662000296565b60005b828110156200052457848901518255600182019150602085019450602081019050620004fd565b8683101562000544578489015162000540601f89168262000434565b8355505b6001600288020188555050505b505050505050565b600073ffffffffffffffffffffffffffffffffffffffff82169050919050565b6000620005868262000559565b9050919050565b620005988162000579565b82525050565b6000602082019050620005b560008301846200058d565b92915050565b61352480620005cb6000396000f3fe608060405234801561001057600080fd5b50600436106101735760003560e01c806375794a3c116100de578063a22cb46511610097578063d450fbc911610071578063d450fbc914610460578063e985e9c514610490578063f1a0995c146104c0578063f2fde38b146104f057610173565b8063a22cb465146103f8578063b88d4fde14610414578063c87b56dd1461043057610173565b806375794a3c1461031e57806386481d401461033c5780638a91a6c81461036c5780638da5cb5b1461038857806395d89b41146103a6578063970129be146103c457610173565b80632a99421c116101305780632a99421c1461025e57806342842e0e1461027c57806347dfd91c146102985780636352211e146102b457806370a08231146102e4578063715018a61461031457610173565b806301320fe21461017857806301ffc9a7146101a857806306fdde03146101d8578063081812fc146101f6578063095ea7b31461022657806323b872dd14610242575b600080fd5b610192600480360381019061018d91906125cb565b61050c565b60405161019f9190612611565b60405180910390f35b6101c260048036038101906101bd9190612684565b610524565b6040516101cf91906126cc565b60405180910390f35b6101e0610585565b6040516101ed9190612777565b60405180910390f35b610210600480360381019061020b91906127c5565b610617565b60405161021d9190612801565b60405180910390f35b610240600480360381019061023b919061281c565b610633565b005b61025c6004803603810190610257919061285c565b610649565b005b61026661074b565b6040516102739190612611565b60405180910390f35b6102966004803603810190610291919061285c565b610750565b005b6102b260048036038101906102ad91906129e4565b610770565b005b6102ce60048036038101906102c991906127c5565b6108d3565b6040516102db9190612801565b60405180910390f35b6102fe60048036038101906102f991906125cb565b6108e5565b60405161030b9190612611565b60405180910390f35b61031c61099f565b005b6103266109b3565b6040516103339190612611565b60405180910390f35b610356600480360381019061035191906127c5565b6109b9565b6040516103639190612777565b60405180910390f35b61038660048036038101906103819190612a8b565b610a61565b005b610390610c7b565b60405161039d9190612801565b60405180910390f35b6103ae610ca5565b6040516103bb9190612777565b60405180910390f35b6103de60048036038101906103d991906127c5565b610d37565b6040516103ef959493929190612b89565b60405180910390f35b610412600480360381019061040d9190612c1d565b610f20565b005b61042e60048036038101906104299190612cfe565b610f36565b005b61044a600480360381019061044591906127c5565b610f5b565b6040516104579190612777565b60405180910390f35b61047a600480360381019061047591906127c5565b61106e565b6040516104879190612777565b60405180910390f35b6104aa60048036038101906104a59190612d81565b611116565b6040516104b791906126cc565b60405180910390f35b6104da60048036038101906104d591906127c5565b6111aa565b6040516104e79190612dc1565b60405180910390f35b61050a600480360381019061050591906125cb565b61124e565b005b600a6020528060005260406000206000915090505481565b6000634906490660e01b7bffffffffffffffffffffffffffffffffffffffffffffffffffffffff1916827bffffffffffffffffffffffffffffffffffffffffffffffffffffffff1916148061057e575061057d826112d4565b5b9050919050565b60606000805461059490612e12565b80601f01602080910402602001604051908101604052809291908181526020018280546105c090612e12565b801561060d5780601f106105e25761010080835404028352916020019161060d565b820191906000526020600020905b8154815290600101906020018083116105f057829003601f168201915b5050505050905090565b6000610622826113b6565b5061062c8261143e565b9050919050565b610645828261064061147b565b611483565b5050565b600073ffffffffffffffffffffffffffffffffffffffff168273ffffffffffffffffffffffffffffffffffffffff16036106bb5760006040517f64a0ae920000000000000000000000000000000000000000000000000000000081526004016106b29190612801565b60405180910390fd5b60006106cf83836106ca61147b565b611495565b90508373ffffffffffffffffffffffffffffffffffffffff168173ffffffffffffffffffffffffffffffffffffffff1614610745578382826040517f64283d7b00000000000000000000000000000000000000000000000000000000815260040161073c93929190612e43565b60405180910390fd5b50505050565b600481565b61076b83838360405180602001604052806000815250610f36565b505050565b600461077b336108e5565b106107bb576040517f08c379a00000000000000000000000000000000000000000000000000000000081526004016107b290612ec6565b60405180910390fd5b6000600860008154809291906107d090612f15565b9190505590506107e033826116af565b6107ea81856116cd565b6040518060a00160405280848152602001838152602001428152602001428152602001600067ffffffffffffffff811115610828576108276128b9565b5b6040519080825280602002602001820160405280156108565781602001602082028036833780820191505090505b508152506009600083815260200190815260200160002060008201518160000190816108829190613109565b5060208201518160010190816108989190613109565b50604082015181600201556060820151816003015560808201518160040190805190602001906108c99291906124b2565b5090505050505050565b60006108de826113b6565b9050919050565b60008073ffffffffffffffffffffffffffffffffffffffff168273ffffffffffffffffffffffffffffffffffffffff16036109585760006040517f89c62b6400000000000000000000000000000000000000000000000000000000815260040161094f9190612801565b60405180910390fd5b600360008373ffffffffffffffffffffffffffffffffffffffff1673ffffffffffffffffffffffffffffffffffffffff168152602001908152602001600020549050919050565b6109a7611729565b6109b160006117b0565b565b60085481565b60606009600083815260200190815260200160002060000180546109dc90612e12565b80601f0160208091040260200160405190810160405280929190818152602001828054610a0890612e12565b8015610a555780601f10610a2a57610100808354040283529160200191610a55565b820191906000526020600020905b815481529060010190602001808311610a3857829003601f168201915b50505050509050919050565b3373ffffffffffffffffffffffffffffffffffffffff16610a81836108d3565b73ffffffffffffffffffffffffffffffffffffffff1614610ad7576040517f08c379a0000000000000000000000000000000000000000000000000000000008152600401610ace90613227565b60405180910390fd5b600a60003373ffffffffffffffffffffffffffffffffffffffff1673ffffffffffffffffffffffffffffffffffffffff16815260200190815260200160002054421015610b59576040517f08c379a0000000000000000000000000000000000000000000000000000000008152600401610b5090613293565b60405180910390fd5b6004610b64826108e5565b10610ba4576040517f08c379a0000000000000000000000000000000000000000000000000000000008152600401610b9b906132ff565b60405180910390fd5b61012c42610bb2919061331f565b600a60008373ffffffffffffffffffffffffffffffffffffffff1673ffffffffffffffffffffffffffffffffffffffff1681526020019081526020016000208190555060096000838152602001908152602001600020600401339080600181540180825580915050600190039060005260206000200160009091909190916101000a81548173ffffffffffffffffffffffffffffffffffffffff021916908373ffffffffffffffffffffffffffffffffffffffff160217905550610c77338284611876565b5050565b6000600760009054906101000a900473ffffffffffffffffffffffffffffffffffffffff16905090565b606060018054610cb490612e12565b80601f0160208091040260200160405190810160405280929190818152602001828054610ce090612e12565b8015610d2d5780601f10610d0257610100808354040283529160200191610d2d565b820191906000526020600020905b815481529060010190602001808311610d1057829003601f168201915b5050505050905090565b6060806000806060600060096000888152602001908152602001600020905080600001816001018260020154836003015484600401848054610d7890612e12565b80601f0160208091040260200160405190810160405280929190818152602001828054610da490612e12565b8015610df15780601f10610dc657610100808354040283529160200191610df1565b820191906000526020600020905b815481529060010190602001808311610dd457829003601f168201915b50505050509450838054610e0490612e12565b80601f0160208091040260200160405190810160405280929190818152602001828054610e3090612e12565b8015610e7d5780601f10610e5257610100808354040283529160200191610e7d565b820191906000526020600020905b815481529060010190602001808311610e6057829003601f168201915b5050505050935080805480602002602001604051908101604052809291908181526020018280548015610f0557602002820191906000526020600020905b8160009054906101000a900473ffffffffffffffffffffffffffffffffffffffff1673ffffffffffffffffffffffffffffffffffffffff1681526020019060010190808311610ebb575b50505050509050955095509550955095505091939590929450565b610f32610f2b61147b565b83836119e3565b5050565b610f41848484610649565b610f55610f4c61147b565b85858585611b52565b50505050565b6060610f66826113b6565b506000600660008481526020019081526020016000208054610f8790612e12565b80601f0160208091040260200160405190810160405280929190818152602001828054610fb390612e12565b80156110005780601f10610fd557610100808354040283529160200191611000565b820191906000526020600020905b815481529060010190602001808311610fe357829003601f168201915b505050505090506000611011611d03565b90506000815103611026578192505050611069565b60008251111561105b57808260405160200161104392919061338f565b60405160208183030381529060405292505050611069565b61106484611d1a565b925050505b919050565b606060096000838152602001908152602001600020600101805461109190612e12565b80601f01602080910402602001604051908101604052809291908181526020018280546110bd90612e12565b801561110a5780601f106110df5761010080835404028352916020019161110a565b820191906000526020600020905b8154815290600101906020018083116110ed57829003601f168201915b50505050509050919050565b6000600560008473ffffffffffffffffffffffffffffffffffffffff1673ffffffffffffffffffffffffffffffffffffffff16815260200190815260200160002060008373ffffffffffffffffffffffffffffffffffffffff1673ffffffffffffffffffffffffffffffffffffffff16815260200190815260200160002060009054906101000a900460ff16905092915050565b60606009600083815260200190815260200160002060040180548060200260200160405190810160405280929190818152602001828054801561124257602002820191906000526020600020905b8160009054906101000a900473ffffffffffffffffffffffffffffffffffffffff1673ffffffffffffffffffffffffffffffffffffffff16815260200190600101908083116111f8575b50505050509050919050565b611256611729565b600073ffffffffffffffffffffffffffffffffffffffff168173ffffffffffffffffffffffffffffffffffffffff16036112c85760006040517f1e4fbdf70000000000000000000000000000000000000000000000000000000081526004016112bf9190612801565b60405180910390fd5b6112d1816117b0565b50565b60007f80ac58cd000000000000000000000000000000000000000000000000000000007bffffffffffffffffffffffffffffffffffffffffffffffffffffffff1916827bffffffffffffffffffffffffffffffffffffffffffffffffffffffff1916148061139f57507f5b5e139f000000000000000000000000000000000000000000000000000000007bffffffffffffffffffffffffffffffffffffffffffffffffffffffff1916827bffffffffffffffffffffffffffffffffffffffffffffffffffffffff1916145b806113af57506113ae82611d83565b5b9050919050565b6000806113c283611ded565b9050600073ffffffffffffffffffffffffffffffffffffffff168173ffffffffffffffffffffffffffffffffffffffff160361143557826040517f7e27328900000000000000000000000000000000000000000000000000000000815260040161142c9190612611565b60405180910390fd5b80915050919050565b60006004600083815260200190815260200160002060009054906101000a900473ffffffffffffffffffffffffffffffffffffffff169050919050565b600033905090565b6114908383836001611e2a565b505050565b6000806114a184611ded565b9050600073ffffffffffffffffffffffffffffffffffffffff168373ffffffffffffffffffffffffffffffffffffffff16146114e3576114e2818486611fef565b5b600073ffffffffffffffffffffffffffffffffffffffff168173ffffffffffffffffffffffffffffffffffffffff161461157457611525600085600080611e2a565b6001600360008373ffffffffffffffffffffffffffffffffffffffff1673ffffffffffffffffffffffffffffffffffffffff168152602001908152602001600020600082825403925050819055505b600073ffffffffffffffffffffffffffffffffffffffff168573ffffffffffffffffffffffffffffffffffffffff16146115f7576001600360008773ffffffffffffffffffffffffffffffffffffffff1673ffffffffffffffffffffffffffffffffffffffff168152602001908152602001600020600082825401925050819055505b846002600086815260200190815260200160002060006101000a81548173ffffffffffffffffffffffffffffffffffffffff021916908373ffffffffffffffffffffffffffffffffffffffff160217905550838573ffffffffffffffffffffffffffffffffffffffff168273ffffffffffffffffffffffffffffffffffffffff167fddf252ad1be2c89b69c2b068fc378daa952ba7f163c4a11628f55a4df523b3ef60405160405180910390a4809150509392505050565b6116c98282604051806020016040528060008152506120b3565b5050565b806006600084815260200190815260200160002090816116ed9190613109565b507ff8e1a15aba9398e019f0b49df1a4fde98ee17ae345cb5f6b5e2c27f5033e8ce78260405161171d9190612611565b60405180910390a15050565b61173161147b565b73ffffffffffffffffffffffffffffffffffffffff1661174f610c7b565b73ffffffffffffffffffffffffffffffffffffffff16146117ae5761177261147b565b6040517f118cdaa70000000000000000000000000000000000000000000000000000000081526004016117a59190612801565b60405180910390fd5b565b6000600760009054906101000a900473ffffffffffffffffffffffffffffffffffffffff16905081600760006101000a81548173ffffffffffffffffffffffffffffffffffffffff021916908373ffffffffffffffffffffffffffffffffffffffff1602179055508173ffffffffffffffffffffffffffffffffffffffff168173ffffffffffffffffffffffffffffffffffffffff167f8be0079c531659141344cd1fd0a4f28419497f9722a3daafe3b4186f6b6457e060405160405180910390a35050565b600073ffffffffffffffffffffffffffffffffffffffff168273ffffffffffffffffffffffffffffffffffffffff16036118e85760006040517f64a0ae920000000000000000000000000000000000000000000000000000000081526004016118df9190612801565b60405180910390fd5b60006118f683836000611495565b9050600073ffffffffffffffffffffffffffffffffffffffff168173ffffffffffffffffffffffffffffffffffffffff160361196957816040517f7e2732890000000000000000000000000000000000000000000000000000000081526004016119609190612611565b60405180910390fd5b8373ffffffffffffffffffffffffffffffffffffffff168173ffffffffffffffffffffffffffffffffffffffff16146119dd578382826040517f64283d7b0000000000000000000000000000000000000000000000000000000081526004016119d493929190612e43565b60405180910390fd5b50505050565b600073ffffffffffffffffffffffffffffffffffffffff168273ffffffffffffffffffffffffffffffffffffffff1603611a5457816040517f5b08ba18000000000000000000000000000000000000000000000000000000008152600401611a4b9190612801565b60405180910390fd5b80600560008573ffffffffffffffffffffffffffffffffffffffff1673ffffffffffffffffffffffffffffffffffffffff16815260200190815260200160002060008473ffffffffffffffffffffffffffffffffffffffff1673ffffffffffffffffffffffffffffffffffffffff16815260200190815260200160002060006101000a81548160ff0219169083151502179055508173ffffffffffffffffffffffffffffffffffffffff168373ffffffffffffffffffffffffffffffffffffffff167f17307eab39ab6107e8899845ad3d59bd9653f200f220920489ca2b5937696c3183604051611b4591906126cc565b60405180910390a3505050565b60008373ffffffffffffffffffffffffffffffffffffffff163b1115611cfc578273ffffffffffffffffffffffffffffffffffffffff1663150b7a02868685856040518563ffffffff1660e01b8152600401611bb19493929190613408565b6020604051808303816000875af1925050508015611bed57506040513d601f19601f82011682018060405250810190611bea9190613469565b60015b611c71573d8060008114611c1d576040519150601f19603f3d011682016040523d82523d6000602084013e611c22565b606091505b506000815103611c6957836040517f64a0ae92000000000000000000000000000000000000000000000000000000008152600401611c609190612801565b60405180910390fd5b805181602001fd5b63150b7a0260e01b7bffffffffffffffffffffffffffffffffffffffffffffffffffffffff1916817bffffffffffffffffffffffffffffffffffffffffffffffffffffffff191614611cfa57836040517f64a0ae92000000000000000000000000000000000000000000000000000000008152600401611cf19190612801565b60405180910390fd5b505b5050505050565b606060405180602001604052806000815250905090565b6060611d25826113b6565b506000611d30611d03565b90506000815111611d505760405180602001604052806000815250611d7b565b80611d5a846120d7565b604051602001611d6b92919061338f565b6040516020818303038152906040525b915050919050565b60007f01ffc9a7000000000000000000000000000000000000000000000000000000007bffffffffffffffffffffffffffffffffffffffffffffffffffffffff1916827bffffffffffffffffffffffffffffffffffffffffffffffffffffffff1916149050919050565b60006002600083815260200190815260200160002060009054906101000a900473ffffffffffffffffffffffffffffffffffffffff169050919050565b8080611e635750600073ffffffffffffffffffffffffffffffffffffffff168273ffffffffffffffffffffffffffffffffffffffff1614155b15611f97576000611e73846113b6565b9050600073ffffffffffffffffffffffffffffffffffffffff168373ffffffffffffffffffffffffffffffffffffffff1614158015611ede57508273ffffffffffffffffffffffffffffffffffffffff168173ffffffffffffffffffffffffffffffffffffffff1614155b8015611ef15750611eef8184611116565b155b15611f3357826040517fa9fbf51f000000000000000000000000000000000000000000000000000000008152600401611f2a9190612801565b60405180910390fd5b8115611f9557838573ffffffffffffffffffffffffffffffffffffffff168273ffffffffffffffffffffffffffffffffffffffff167f8c5be1e5ebec7d5bd14f71427d1e84f3dd0314c0f7b2291e5b200ac8c7c3b92560405160405180910390a45b505b836004600085815260200190815260200160002060006101000a81548173ffffffffffffffffffffffffffffffffffffffff021916908373ffffffffffffffffffffffffffffffffffffffff16021790555050505050565b611ffa8383836121a5565b6120ae57600073ffffffffffffffffffffffffffffffffffffffff168373ffffffffffffffffffffffffffffffffffffffff160361206f57806040517f7e2732890000000000000000000000000000000000000000000000000000000081526004016120669190612611565b60405180910390fd5b81816040517f177e802f0000000000000000000000000000000000000000000000000000000081526004016120a5929190613496565b60405180910390fd5b505050565b6120bd8383612266565b6120d26120c861147b565b6000858585611b52565b505050565b6060600060016120e68461235f565b01905060008167ffffffffffffffff811115612105576121046128b9565b5b6040519080825280601f01601f1916602001820160405280156121375781602001600182028036833780820191505090505b509050600082602001820190505b60011561219a578080600190039150507f3031323334353637383961626364656600000000000000000000000000000000600a86061a8153600a858161218e5761218d6134bf565b5b04945060008503612145575b819350505050919050565b60008073ffffffffffffffffffffffffffffffffffffffff168373ffffffffffffffffffffffffffffffffffffffff161415801561225d57508273ffffffffffffffffffffffffffffffffffffffff168473ffffffffffffffffffffffffffffffffffffffff16148061221e575061221d8484611116565b5b8061225c57508273ffffffffffffffffffffffffffffffffffffffff166122448361143e565b73ffffffffffffffffffffffffffffffffffffffff16145b5b90509392505050565b600073ffffffffffffffffffffffffffffffffffffffff168273ffffffffffffffffffffffffffffffffffffffff16036122d85760006040517f64a0ae920000000000000000000000000000000000000000000000000000000081526004016122cf9190612801565b60405180910390fd5b60006122e683836000611495565b9050600073ffffffffffffffffffffffffffffffffffffffff168173ffffffffffffffffffffffffffffffffffffffff161461235a5760006040517f73c6ac6e0000000000000000000000000000000000000000000000000000000081526004016123519190612801565b60405180910390fd5b505050565b600080600090507a184f03e93ff9f4daa797ed6e38ed64bf6a1f01000000000000000083106123bd577a184f03e93ff9f4daa797ed6e38ed64bf6a1f01000000000000000083816123b3576123b26134bf565b5b0492506040810190505b6d04ee2d6d415b85acef810000000083106123fa576d04ee2d6d415b85acef810000000083816123f0576123ef6134bf565b5b0492506020810190505b662386f26fc10000831061242957662386f26fc10000838161241f5761241e6134bf565b5b0492506010810190505b6305f5e1008310612452576305f5e1008381612448576124476134bf565b5b0492506008810190505b612710831061247757612710838161246d5761246c6134bf565b5b0492506004810190505b6064831061249a57606483816124905761248f6134bf565b5b0492506002810190505b600a83106124a9576001810190505b80915050919050565b82805482825590600052602060002090810192821561252b579160200282015b8281111561252a5782518260006101000a81548173ffffffffffffffffffffffffffffffffffffffff021916908373ffffffffffffffffffffffffffffffffffffffff160217905550916020019190600101906124d2565b5b509050612538919061253c565b5090565b5b8082111561255557600081600090555060010161253d565b5090565b6000604051905090565b600080fd5b600080fd5b600073ffffffffffffffffffffffffffffffffffffffff82169050919050565b60006125988261256d565b9050919050565b6125a88161258d565b81146125b357600080fd5b50565b6000813590506125c58161259f565b92915050565b6000602082840312156125e1576125e0612563565b5b60006125ef848285016125b6565b91505092915050565b6000819050919050565b61260b816125f8565b82525050565b60006020820190506126266000830184612602565b92915050565b60007fffffffff0000000000000000000000000000000000000000000000000000000082169050919050565b6126618161262c565b811461266c57600080fd5b50565b60008135905061267e81612658565b92915050565b60006020828403121561269a57612699612563565b5b60006126a88482850161266f565b91505092915050565b60008115159050919050565b6126c6816126b1565b82525050565b60006020820190506126e160008301846126bd565b92915050565b600081519050919050565b600082825260208201905092915050565b60005b83811015612721578082015181840152602081019050612706565b60008484015250505050565b6000601f19601f8301169050919050565b6000612749826126e7565b61275381856126f2565b9350612763818560208601612703565b61276c8161272d565b840191505092915050565b60006020820190508181036000830152612791818461273e565b905092915050565b6127a2816125f8565b81146127ad57600080fd5b50565b6000813590506127bf81612799565b92915050565b6000602082840312156127db576127da612563565b5b60006127e9848285016127b0565b91505092915050565b6127fb8161258d565b82525050565b600060208201905061281660008301846127f2565b92915050565b6000806040838503121561283357612832612563565b5b6000612841858286016125b6565b9250506020612852858286016127b0565b9150509250929050565b60008060006060848603121561287557612874612563565b5b6000612883868287016125b6565b9350506020612894868287016125b6565b92505060406128a5868287016127b0565b9150509250925092565b600080fd5b600080fd5b7f4e487b7100000000000000000000000000000000000000000000000000000000600052604160045260246000fd5b6128f18261272d565b810181811067ffffffffffffffff821117156129105761290f6128b9565b5b80604052505050565b6000612923612559565b905061292f82826128e8565b919050565b600067ffffffffffffffff82111561294f5761294e6128b9565b5b6129588261272d565b9050602081019050919050565b82818337600083830152505050565b600061298761298284612934565b612919565b9050828152602081018484840111156129a3576129a26128b4565b5b6129ae848285612965565b509392505050565b600082601f8301126129cb576129ca6128af565b5b81356129db848260208601612974565b91505092915050565b6000806000606084860312156129fd576129fc612563565b5b600084013567ffffffffffffffff811115612a1b57612a1a612568565b5b612a27868287016129b6565b935050602084013567ffffffffffffffff811115612a4857612a47612568565b5b612a54868287016129b6565b925050604084013567ffffffffffffffff811115612a7557612a74612568565b5b612a81868287016129b6565b9150509250925092565b60008060408385031215612aa257612aa1612563565b5b6000612ab0858286016127b0565b9250506020612ac1858286016125b6565b9150509250929050565b600081519050919050565b600082825260208201905092915050565b6000819050602082019050919050565b612b008161258d565b82525050565b6000612b128383612af7565b60208301905092915050565b6000602082019050919050565b6000612b3682612acb565b612b408185612ad6565b9350612b4b83612ae7565b8060005b83811015612b7c578151612b638882612b06565b9750612b6e83612b1e565b925050600181019050612b4f565b5085935050505092915050565b600060a0820190508181036000830152612ba3818861273e565b90508181036020830152612bb7818761273e565b9050612bc66040830186612602565b612bd36060830185612602565b8181036080830152612be58184612b2b565b90509695505050505050565b612bfa816126b1565b8114612c0557600080fd5b50565b600081359050612c1781612bf1565b92915050565b60008060408385031215612c3457612c33612563565b5b6000612c42858286016125b6565b9250506020612c5385828601612c08565b9150509250929050565b600067ffffffffffffffff821115612c7857612c776128b9565b5b612c818261272d565b9050602081019050919050565b6000612ca1612c9c84612c5d565b612919565b905082815260208101848484011115612cbd57612cbc6128b4565b5b612cc8848285612965565b509392505050565b600082601f830112612ce557612ce46128af565b5b8135612cf5848260208601612c8e565b91505092915050565b60008060008060808587031215612d1857612d17612563565b5b6000612d26878288016125b6565b9450506020612d37878288016125b6565b9350506040612d48878288016127b0565b925050606085013567ffffffffffffffff811115612d6957612d68612568565b5b612d7587828801612cd0565b91505092959194509250565b60008060408385031215612d9857612d97612563565b5b6000612da6858286016125b6565b9250506020612db7858286016125b6565b9150509250929050565b60006020820190508181036000830152612ddb8184612b2b565b905092915050565b7f4e487b7100000000000000000000000000000000000000000000000000000000600052602260045260246000fd5b60006002820490506001821680612e2a57607f821691505b602082108103612e3d57612e3c612de3565b5b50919050565b6000606082019050612e5860008301866127f2565b612e656020830185612602565b612e7260408301846127f2565b949350505050565b7f4f776e657273686970206c696d69742072656163686564000000000000000000600082015250565b6000612eb06017836126f2565b9150612ebb82612e7a565b602082019050919050565b60006020820190508181036000830152612edf81612ea3565b9050919050565b7f4e487b7100000000000000000000000000000000000000000000000000000000600052601160045260246000fd5b6000612f20826125f8565b91507fffffffffffffffffffffffffffffffffffffffffffffffffffffffffffffffff8203612f5257612f51612ee6565b5b600182019050919050565b60008190508160005260206000209050919050565b60006020601f8301049050919050565b600082821b905092915050565b600060088302612fbf7fffffffffffffffffffffffffffffffffffffffffffffffffffffffffffffffff82612f82565b612fc98683612f82565b95508019841693508086168417925050509392505050565b6000819050919050565b6000613006613001612ffc846125f8565b612fe1565b6125f8565b9050919050565b6000819050919050565b61302083612feb565b61303461302c8261300d565b848454612f8f565b825550505050565b600090565b61304961303c565b613054818484613017565b505050565b5b818110156130785761306d600082613041565b60018101905061305a565b5050565b601f8211156130bd5761308e81612f5d565b61309784612f72565b810160208510156130a6578190505b6130ba6130b285612f72565b830182613059565b50505b505050565b600082821c905092915050565b60006130e0600019846008026130c2565b1980831691505092915050565b60006130f983836130cf565b9150826002028217905092915050565b613112826126e7565b67ffffffffffffffff81111561312b5761312a6128b9565b5b6131358254612e12565b61314082828561307c565b600060209050601f8311600181146131735760008415613161578287015190505b61316b85826130ed565b8655506131d3565b601f19841661318186612f5d565b60005b828110156131a957848901518255600182019150602085019450602081019050613184565b868310156131c657848901516131c2601f8916826130cf565b8355505b6001600288020188555050505b505050505050565b7f4e6f7420746865206f776e657200000000000000000000000000000000000000600082015250565b6000613211600d836126f2565b915061321c826131db565b602082019050919050565b6000602082019050818103600083015261324081613204565b9050919050565b7f436f6f6c646f776e206163746976650000000000000000000000000000000000600082015250565b600061327d600f836126f2565b915061328882613247565b602082019050919050565b600060208201905081810360008301526132ac81613270565b9050919050565b7f526563697069656e74206174206d6178206f776e657273686970000000000000600082015250565b60006132e9601a836126f2565b91506132f4826132b3565b602082019050919050565b60006020820190508181036000830152613318816132dc565b9050919050565b600061332a826125f8565b9150613335836125f8565b925082820190508082111561334d5761334c612ee6565b5b92915050565b600081905092915050565b6000613369826126e7565b6133738185613353565b9350613383818560208601612703565b80840191505092915050565b600061339b828561335e565b91506133a7828461335e565b91508190509392505050565b600081519050919050565b600082825260208201905092915050565b60006133da826133b3565b6133e481856133be565b93506133f4818560208601612703565b6133fd8161272d565b840191505092915050565b600060808201905061341d60008301876127f2565b61342a60208301866127f2565b6134376040830185612602565b818103606083015261344981846133cf565b905095945050505050565b60008151905061346381612658565b92915050565b60006020828403121561347f5761347e612563565b5b600061348d84828501613454565b91505092915050565b60006040820190506134ab60008301856127f2565b6134b86020830184612602565b9392505050565b7f4e487b7100000000000000000000000000000000000000000000000000000000600052601260045260246000fdfea26469706673582212204f430b91383669b92bbd01a8447330f6f355910b196b61f7bd189db6fbec1e2c64736f6c63430008140033",
  "linkReferences": {},
  "deployedLinkReferences": {}
}